:020000020000FC
:10000000209A219A229A579856980FE32FE330E0CE
:1000100080E002D02ED0FECF0F932F931F931FB7F7
:100020001F9318E0001F10F02A9801C02A9A289AFE
:1000300028981A95B9F7299A299818E0221F10F0E4
:100040002A9801C02A9A289A28981A95B9F7299AC5
:1000500029981F911FBF1F910F912F9108950000A4
:10006000E0E2F3E0D0E2DA95F1F73197D9F7839542
:1000700008954F9903D04E9907D008950ED084313A
:1000800080F4339515D0089508D049E1341711F064
:100090000C940A000FE72FE7BFDFE1DF4F9B0895C5
:1000A000FCCF80E00FE62FE630E0B6DF0C940A00CC
:1000B00080E041E0341721F406E02FE3ADDF08953E
:1000C00042E0341721F40BE52FE3A6DF089543E067
:1000D000341721F40FE42FE39FDF089544E0341731
:1000E00021F406E62FE398DF089545E034170895DC
:0800F0000DE62DE691DF0895F5
:00000001FF
